:100000000C945D000C9485000C9485000C94850084
:100010000C9485000C9485000C9485000C9485004C
:100020000C9485000C9485000C9485000C9485003C
:100030000C9485000C9485000C9485000C9485002C
:100040000C9432070C9485000C9400070C94DA068B
:100050000C9485000C9485000C9485000C9485000C
:100060000C947C070C9485000000000024002700FD
:100070002A0000000000250028002B0004040404CE
:100080000404040402020202020203030303030342
:10009000010204081020408001020408102001021F
:1000A00004081020000000080002010000030407FB
:1000B00000000000000000009B0811241FBECFEFCD
:1000C000D8E0DEBFCDBF23E0A0E6B1E001C01D92C5
:1000D000A432B207E1F711E0A0E0B1E0ECE2FDE10B
:1000E00002C005900D92A036B107D9F710E0CDE51A
:1000F000D0E004C02197FE010E94930CCC35D107BB
:10010000C9F70E9456090C94940E0C940000E7E283
:10011000F2E0A089B18982E08C93A485B5851C9218
:10012000A685B7858FEC8C93108EA489B58986E05F
:100130008C93A289B3898C9180618C93A289B389B5
:100140008C9188608C93A289B3898C9180688C9300
:100150000288F389E02D80818F7D808308959091BE
:100160002602809125022FEF3FEF981748F4E92FE0
:10017000F0E0EB5FFD4F208130E09F5F909326021F
:10018000C901089590912602809125022FEF3FEF3B
:10019000981748F4E92FF0E0EB5FFD4F208130E045
:1001A0009F5F90932602C9010895AF92BF92CF92AC
:1001B000DF92EF92FF920F931F93CF93DF936C0127
:1001C0007B018B01040F151FEB015E01AE18BF0808
:1001D000C017D10759F06991D601ED91FC910190BA
:1001E000F081E02DC6010995892B79F7C501DF91D2
:1001F000CF911F910F91FF90EF90DF90CF90BF9024
:10020000AF900895089508950895FC01538D448D8D
:10021000252F30E0842F90E0821B930B541710F0B1
:10022000CF96089501970895FC01918D828D9817BE
:1002300061F0A28DAE0FBF2FB11D5D968C91928D96
:100240009F5F9F73928F90E008958FEF9FEF0895C7
:10025000FC01918D828D981731F0828DE80FF11D90
:10026000858D90E008958FEF9FEF0895FC01918DAB
:10027000228D892F90E0805C9F4F821B91098F73A4
:100280009927089587E292E00E94360121E0892BA8
:1002900009F420E0822F089580E090E0892B29F076
:1002A0000E94420181110C9400000895FC01A48D6C
:1002B000A80FB92FB11DA35ABF4F2C91848D90E088
:1002C00001968F739927848FA689B7892C93A0896B
:1002D000B1898C91837080648C93938D848D9813F5
:1002E00006C00288F389E02D80818F7D8083089588
:1002F000EF92FF920F931F93CF93DF93EC0181E076
:10030000888F9B8D8C8D98131AC0E889F98980811C
:1003100085FF15C09FB7F894EE89FF896083E8894F
:10032000F98980818370806480839FBF81E090E041
:10033000DF91CF911F910F91FF90EF900895F62ECE
:100340000B8D10E00F5F1F4F0F731127E02E8C8D68
:100350008E110CC00FB607FCFACFE889F9898081AD
:1003600085FFF5CFCE010E945601F1CFEB8DEC0F4A
:10037000FD2FF11DE35AFF4FF0829FB7F8940B8FCA
:10038000EA89FB8980818062CFCFCF93DF93EC0134
:10039000888D8823B9F0AA89BB89E889F9898C916D
:1003A00085FD03C0808186FD0DC00FB607FCF7CF29
:1003B0008C9185FFF2CF808185FFEDCFCE010E9429
:1003C0005601E9CFDF91CF91089590E0FC01EC5503
:1003D000FF4F2491FC01E057FF4F3491FC01E4589A
:1003E000FF4FE491EE23C9F0222339F0233001F1CD
:1003F000A8F4213019F1223029F1F0E0EE0FFF1FAF
:10040000EE58FF4FA591B4918FB7F894EC9161111C
:1004100026C030953E233C938FBF08952730A9F026
:100420002830C9F0243049F7809180008F7D03C0C7
:10043000809180008F7780938000DFCF84B58F77A5
:1004400084BDDBCF84B58F7DFBCF8091B0008F77EB
:100450008093B000D2CF8091B0008F7DF9CF3E2B3A
:10046000DACFCF93DF9360E08CE00E94E50160E09B
:1004700088E00E94E501C7E0D0E060E084E00E94EF
:10048000E5018091160390E00C2E02C095958795AA
:100490000A94E2F761E080FF60E088E00E94E501F5
:1004A00061E084E00E94E501219738F761E08CE08B
:1004B000DF91CF910C94E501CF93DF9390E0FC01A5
:1004C000E057FF4F249184589F4FFC01849188236B
:1004D000D1F090E0880F991FFC01E859FF4FA591DA
:1004E000B491FC01EE58FF4FC591D49161110EC03B
:1004F0009FB7F8948C91E22FE0958E238C932881FE
:10050000E223E8839FBFDF91CF9108958FB7F894DE
:10051000EC91E22BEC938FBFF6CF61E08CE00E9470
:100520005C0261E087E00E945C0261E088E00E947A
:100530005C0261E084E00E945C02109216030E945B
:10054000310260E087E00C94E5013FB7F8948091B8
:10055000A9019091AA01A091AB01B091AC0126B57F
:10056000A89B05C02F3F19F00196A11DB11D3FBFEB
:10057000BA2FA92F982F8827BC01CD01620F711DBA
:10058000811D911D42E0660F771F881F991F4A95B4
:10059000D1F708952FB7F8946091A5017091A60145
:1005A0008091A7019091A8012FBF0895FC0180813F
:1005B000823061F018F4813031F00895833049F0D1
:1005C000843049F008956093B30008956093B400B7
:1005D000089567BD089568BD0895FC01808182304B
:1005E00069F028F423E092E0813051F008958330DF
:1005F00011F126E090E0843019F0089524E091E0B4
:100600006230E1F0643079F1613009F03FC041E0DF
:1006100050E0BA0101C0660F9A95EAF7809116037F
:10062000862B01C0440F2A95EAF740954823409352
:1006300016030C94310227E095E0E2CF41E050E050
:10064000BA0102C0660F771F9A95E2F7CB01809539
:1006500090911603892301C0440F2A95EAF7842B51
:1006600080931603E6CF41E050E0FA0102C0EE0F9E
:10067000FF1F9A95E2F7CF0101C0440F2A95EAF7D0
:10068000842B8095909116038923EACF08952091B9
:100690008101260F3327331F21323105ECF42091DD
:1006A000FF01FC0190E080E0243069F082E00895D1
:1006B000A09181012191AC014F595E4FA40FB52F3C
:1006C000B11D2C930196861798F380918101680FD4
:1006D0006093810180E0089581E008951092FF0108
:1006E00081E08093FE011092F90161E082E10E94B5
:1006F000E50161E083E10E94E501E9EBF0E0808142
:100700008E7F808380818D7F808388E48093B80092
:1007100085E48093BC000895CF93DF9391E090939C
:1007200060018823B9F0C091B800D091BA008091DF
:10073000BC008A7B8093BC0060E082E10E94E501FE
:1007400060E083E10E94E5010E946E03D093BA004D
:10075000C093B800DF91CF9108958F929F92AF928E
:10076000BF92CF92DF92EF92FF920F931F93CF939E
:10077000DF93D82FC62F142F613208F09CC00E943F
:10078000A5026B017C018091FF0181116FC081E0A6
:100790008093FF011093FE019FEF9093FD01109253
:1007A000FC019C0F9093FB018093FA018091FA0168
:1007B000DD0FD82BD093FA018091F901813009F037
:1007C0007CC01092F9010E94A5026B017C0180910E
:1007D000FA018093BB008091010290910202A091E6
:1007E0000302B0910402892B8A2B8B2BA1F00E946B
:1007F000A5020091010210910202209103023091A2
:1008000004026C197D098E099F090617170728072E
:10081000390708F44CC08091BC0083FDD8CF85EC2B
:100820008093BC000E94A5026B017C018091FF01B6
:10083000813009F444C08091FC018C1710F4C09100
:10084000FC01E9EDF1E0A5E0B2E080E08C1359C0D5
:100850008C2FDF91CF911F910F91FF90EF90DF9040
:10086000CF90BF90AF909F908F900895809101029C
:1008700090910202A0910302B0910402892B8A2B6D
:100880008B2B09F480CF0E94A502809001029090EA
:100890000202A0900302B09004026C197D098E0937
:1008A0009F0986169706A806B90608F06CCF8091B6
:1008B00000020E948C03C0E0CBCF85EEB1CF8091C7
:1008C000010290910202A0910302B0910402892BCF
:1008D0008A2B8B2B09F4AACF0E94A502009101025A
:1008E0001091020220910302309104026C197D09DB
:1008F0008E099F09061717072807390708F096CFB2
:10090000D6CF91919D938F5FA1CF8F929F92AF92FF
:10091000BF92CF92DF92EF92FF920F931F93CF93EC
:10092000DF93D091D801D13208F0D7C0182FC091F1
:10093000D7010E94A5026B017C018091FF0181110A
:100940006BC082E08093FF011093FE018FEF8093D4
:10095000FD011092FC01D093FB01A7EBB1E0E9EDA2
:10096000F1E080E0D81391C01092FA018091FA0171
:10097000CC0FC82BC093FA018091F901813009F0A6
:1009800088C01092F9010E94A5026B017C01809140
:10099000FA018093BB008091010290910202A09124
:1009A0000302B0910402892B8A2B8B2BA1F00E94A9
:1009B000A5020091010210910202209103023091E0
:1009C00004026C197D098E099F090617170728076D
:1009D000390708F442C08091BC0083FDD8CF85EC74
:1009E0008093BC000E94A5026B017C018091FF01F5
:1009F000823009F450C08091FD018F3F09F46FC02F
:100A00008091FD01803209F46CC08091FD0180333A
:100A100009F469C084E026C080910102909102022D
:100A2000A0910302B0910402892B8A2B8B2B09F42D
:100A300084CF0E94A5028090010290900202A090B3
:100A40000302B09004026C197D098E099F09861675
:100A50009706A806B90608F070CF809100020E94A0
:100A60008C0385E01092B6011092D8011092B50166
:100A7000DF91CF911F910F91FF90EF90DF90CF907A
:100A8000BF90AF909F908F9008959D9191938F5FAD
:100A900069CF85EEA5CF8091010290910202A091CD
:100AA0000302B0910402892B8A2B8B2B09F49ECF71
:100AB0000E94A502009101021091020220910302FE
:100AC000309104026C197D098E099F0906171707DA
:100AD0002807390708F08ACFC0CF81E0C3CF80E074
:100AE000C1CF82E0BFCF83E0BDCFE09126028091ED
:100AF0002502E81730F4F0E0EB5FFD4F808190E0D5
:100B000008958FEF9FEF089580912502909126021E
:100B1000891B990B0895CF92DF92EF92FF920F936A
:100B20001F93CF93DF937C01CB018A012091B50104
:100B3000222389F0EB016B01C40ED51ECC15DD0517
:100B400069F06991D701ED91FC910190F081E02D60
:100B5000C7010995F3CF642F0E944703C801DF91B5
:100B6000CF911F910F91FF90EF90DF90CF9008955C
:100B7000CF93DF931F92CDB7DEB769832091B50184
:100B80002223F9F02091D801203258F021E030E002
:100B9000FC013383228390E080E00F90DF91CF91BE
:100BA00008958091B601E82FF0E0E954FE4F998155
:100BB00090838F5F8093B6018093D80181E090E0AD
:100BC000ECCF61E0CE0101960E944703F7CF682F7A
:100BD00084EC92E00C94B80590E080E008951F93B7
:100BE000CF93DF9300D000D0CDB7DEB787E292E09D
:100BF0000E94140187E292E00E94140110E08A33FF
:100C000079F0E1E0F0E0EC0FFD1FE10FF11D17FDC1
:100C1000FA9580831F5F87E292E00E941401EFCF74
:100C2000CE0101960E94140C182F87E292E00E94D8
:100C300014018053990B8230910520F4682F812F85
:100C40000E94E50187E292E00E9414018A3011F0CF
:100C50008D30C1F787E292E00E9428018A3021F4AA
:100C600087E292E00E9414010F900F900F900F9076
:100C7000DF91CF911F910895FC0101900020E9F7C9
:100C80003197AF01481B590BBC0187E292E00C94ED
:100C9000D5008F929F92AF92BF920F931F93CF93E5
:100CA000DF93CDB7DEB7A1970FB6F894DEBF0FBEC6
:100CB000CDBF19A2423008F44AE08E010F5D1F4FEC
:100CC000842E912CB12CA12CA50194010E943A0CE8
:100CD000E62FB901CA01EA30F4F4E05DD801EE93E1
:100CE0008D01232B242B252B79F790E080E01097A2
:100CF00019F0CD010E943C06A1960FB6F894DEBF14
:100D00000FBECDBFDF91CF911F910F91BF90AF90DC
:100D10009F908F900895E95CE1CFFC01248135819B
:100D2000232B39F421E0FB018081882349F020E066
:100D300007C0808191810E94840E21E0892BB9F740
:100D4000822F089585ED8093BC00809101029091DF
:100D50000202A0910302B09104020796A11DB11DE9
:100D600023E0B695A795979587952A95D1F7209179
:100D7000BC0024FD03C01092FF01089540910102C0
:100D8000509102026091030270910402452B462BA0
:100D9000472B69F30097A105B10541F025E32A959A
:100DA000F1F700000197A109B109E1CF809100029C
:100DB0000C948C031F920F920FB60F9211242F9355
:100DC0003F934F935F936F937F938F939F93AF93D3
:100DD000BF93EF93FF9387E292E00E945601FF9149
:100DE000EF91BF91AF919F918F917F916F915F91A3
:100DF0004F913F912F910F900FBE0F901F9018951C
:100E00001F920F920FB60F9211242F938F939F93DF
:100E1000EF93FF93E0913702F09138028081E091E7
:100E20003D02F0913E0282FD1BC090818091400204
:100E30008F5F8F7320914102821741F0E091400251
:100E4000F0E0E95DFD4F958F80934002FF91EF91B7
:100E50009F918F912F910F900FBE0F901F9018951B
:100E60008081F4CF1F920F920FB60F9211242F930F
:100E70003F938F939F93AF93BF938091A5019091E0
:100E8000A601A091A701B091A8013091A40123E08F
:100E9000230F2D3758F50196A11DB11D2093A401F4
:100EA0008093A5019093A601A093A701B093A801F8
:100EB0008091A9019091AA01A091AB01B091AC01E0
:100EC0000196A11DB11D8093A9019093AA01A09341
:100ED000AB01B093AC01BF91AF919F918F913F91C6
:100EE0002F910F900FBE0F901F90189526E8230F9B
:100EF0000296A11DB11DD2CF1F920F920FB60F9275
:100F000011242F933F934F935F936F937F938F930E
:100F10009F93AF93BF93EF93FF938091B900887F26
:100F2000803609F44AC0F0F5883209F4A7C018F5F4
:100F3000803109F49BC0B8F4882309F4F9C08830E3
:100F400009F494C0FF91EF91BF91AF919F918F9160
:100F50007F916F915F914F913F912F910F900FBEB5
:100F60000F901F901895883109F488C0803251F78E
:100F70008093FD0114C0803409F49DC040F4803397
:100F8000B9F38833F9F68093FD0185ECB0C0803564
:100F900009F485C0883509F496C0883499F60E9412
:100FA000A206D0CF883909F48CC038F5883729F0EB
:100FB00050F4883611F0803729F683E08093FF01E2
:100FC0001092A30157C0883809F47BC0803919F00A
:100FD000803809F0B7CF8091A301803208F071C04A
:100FE000E091A30181E08E0F8093A3018091BB006B
:100FF000F0E0ED57FE4F80833DC0803B39F0E0F4D8
:10100000803A09F479C0883A09F09CCF84E0809353
:10101000FF011092820110928101E091AF01F091E5
:10102000B00109958091810181110FC081E0809309
:1010300081011092610109C0803C09F4A6CF883C6F
:1010400009F4A3CF883B09F07DCFE091820181E0D4
:101050008E0F80938201F0E0EF59FE4F80818093E4
:10106000BB00909182018091810129C08091FA0199
:101070008093BB0085EC8093BC0064CF9091FC0111
:101080008091FB01981758F5E091FC0181E08E0FEB
:101090008093FC01F0E0E752FE4F8081E9CFE091C0
:1010A000FC0181E08E0F8093FC018091BB00F0E099
:1010B000E752FE4F80839091FC018091FB019817CD
:1010C000C8F285E8D8CFE091FC0181E08E0F8093D3
:1010D000FC018091BB00F0E0E752FE4F80838091DD
:1010E000FE0181115CCF81E08093F90184EA809355
:1010F000BC001092FF0126CF85EC8093BC001092BB
:10110000FF018091A301803230F4E091A301F0E06F
:10111000ED57FE4F10826091A30170E0E091AD01A8
:10112000F091AE0183E891E009951092A3010ACFF6
:101130001092FD0134CFEF92FF920F931F93CF9344
:10114000E7E2F2E01382128288EE93E0A0E0B0E0E2
:1011500084839583A683B7832AE031E0318320839B
:1011600025EC30E03587248724EC30E0378726876C
:1011700020EC30E0318B208B21EC30E0338B228B64
:1011800022EC30E0358B248B26EC30E0378B268B3D
:10119000118E128E138E148E10921703E4ECF2E06F
:1011A0001382128284839583A683B7838CE191E0B6
:1011B00091838083E0EDF2E016821782108611861B
:1011C000128613861486158616861786108A118A4B
:1011D000128A138A148A158AEEE1F3E081E0808393
:1011E000C2E0C1830E948D0280911603837F8093A9
:1011F00016030E94310200EB10E0F8018081836841
:10120000808381EBE82EF12CF701C0831092B300AC
:1012100061E08BE00E945C02ECE1F3E0C083C183FB
:101220000E948D02809116038D7E809316030E948A
:101230003102F801808183628083F701C0831092BC
:10124000B40061E083E00E945C02EAE1F3E083E045
:101250008083C1830E948D02809116038F758093D5
:1012600016030E94310284B5836884BD17BC61E017
:1012700086E00E945C02E8E1F3E084E08083C183C1
:101280000E948D02809116038E7B809316030E942C
:10129000310284B5836284BD18BC61E085E0CF91E2
:1012A0001F910F91FF90EF900C945C02CF93DF930E
:1012B00000D000D000D0CDB7DEB7789484B582607E
:1012C00084BD84B5816084BD85B5826085BD85B5EA
:1012D000816085BD80916E00816080936E00109268
:1012E00081008091810082608093810080918100E3
:1012F0008160809381008091800081608093800074
:101300008091B10084608093B1008091B0008160D1
:101310008093B00080917A00846080937A008091FD
:101320007A00826080937A0080917A008160809355
:101330007A0080917A00806880937A001092C100D0
:1013400010921203109213031092140310921503BB
:101350001092D2021092D3021092D4021092D502AF
:101360000E94CA026B017C014B015C0128EB820EDA
:101370002BE0921EA11CB11C0E94CA026C157D05B7
:101380008E059F0528F086169706A806B906A0F7D1
:101390000E94A5024B015C0198EEC92E93E0D92E64
:1013A000E12CF12C0E94A502681979098A099B0990
:1013B000683E734081059105A8F331E0C31AD10856
:1013C000E108F10848EE840E43E0941EA11CB11C14
:1013D000C114D104E104F10429F70E9487000E949E
:1013E000CA026093D2027093D3028093D402909386
:1013F000D5028AE291E00E943C060E94CA026B017B
:101400007C014B015C018AE0880E911CA11CB11C7F
:101410000E94CA026C157D058E059F0528F0861670
:101420009706A806B906A0F711E01093E6020E94FD
:10143000CA026093D2027093D3028093D402909335
:10144000D5028BE391E00E943C060E948700109237
:1014500026021092B6011092D8010E946E0383E01A
:1014600091E09093B0018093AF0184E091E090937C
:10147000AE018093AD010E9487001093B50188E60C
:101480008093D7018BE690E00E94E70590E080E032
:101490000E94E70581E00E9485041093B501109237
:1014A000B6011092D8018BE190E00E94E70541E07F
:1014B00061E088E60E94AD03809325020E94CA0283
:1014C000672B682B692B09F4F3C00E94CA020091B4
:1014D000B1011091B2012091B3013091B4016017B4
:1014E00071078207930708F489C10091B101109137
:1014F000B2012091B3013091B4016B017C01C01A9B
:10150000D10AE20AF30A970186010A3F1105210573
:10151000310508F4D5C06093B1017093B201809396
:10152000B3019093B40184EF91E0A0E0B0E0809328
:10153000DE029093DF02A093E002B093E1021092EA
:10154000E2021092E3021092E4021092E50280910E
:10155000D6029091D702A091D802B091D90280937F
:10156000DA029093DB02A093DC02B093DD020E94CA
:10157000CA026093D6027093D7028093D8029093E8
:10158000D90287E292E00E942801843611F40E9479
:10159000EF050E94CA026093D2027093D302809337
:1015A000D4029093D5020E94CA026B017C0182E4AE
:1015B00091E00E943C064AE061E070E080E090E04B
:1015C0000E94490689E491E00E943C064AE0C70176
:1015D000B6010E9449068BE491E00E943C0680918E
:1015E000D6029091D702A091D802B091D902A7015A
:1015F0009601281B390B4A0B5B0BCA01B9014AE063
:101600000E9449068BE491E00E943C066091D6025C
:101610007091D7028091D8029091D9020091DA029C
:101620001091DB022091DC023091DD02601B710B16
:10163000820B930B4AE00E9449068DE491E00E94E0
:101640003C060E94CA024AE00E9449068FE491E0EB
:101650000E943C0686E591E00E943C060E94CA0278
:101660006B017C014B015C0132E0830E911CA11CDB
:10167000B11C0E94CA026C157D058E059F0528F0DD
:1016800086169706A806B906A0F787E292E00E94A0
:101690002801843611F40E94EF050E94CA0260936B
:1016A000D6027093D7028093D8029093D90208C0D3
:1016B0000E94CA02623071058105910508F005CFCC
:1016C0000E94C200877E682F686084EC92E00E94CE
:1016D000B80581E00E9485041A8219821C821B824F
:1016E0001E821D8266E070E090E080E00E94BE0DE8
:1016F000009709F48CC09A83898325E030E03C830D
:101700002B83FC0110823E832D8369E571E00E94EA
:101710008D0E02E310E0EE24E39488E6F82EE092CA
:10172000B501F092D7011092B6011092D8018BE367
:1017300090E00E94E70580E00E94850441E06EE0B1
:1017400088E60E94AD0310922602809325020E9433
:10175000C2000E94C2000E94C2000E94C2000E94F9
:10176000C2000E94C2000E94C2000E94C2000E94E9
:10177000C2000E94C2000E94C2000E94C2000E94D9
:10178000C2000E94C2000150110949F689819A8164
:10179000009711F00E94350D61E08FE00E945C021D
:1017A00060E08EE00E945C0200E010E06FEF8EE1EE
:1017B00093E00E94D60264E08EE193E00E94ED0285
:1017C00062E08EE193E00E94ED026FEF8CE193E026
:1017D0000E94D60264E08CE193E00E94ED0261E099
:1017E0008CE193E00E94ED0201151105F9F20E94CF
:1017F00042018823D9F20E940000D8CF6093B10142
:101800007093B2018093B3019093B4016ECE89813D
:101810009A81009711F00E94350D1A8219821E825A
:101820001D821C821B8275CFFC0188279927E894B2
:1018300021912032E9F3293010F02E30C8F32B32F9
:1018400041F02D3239F4689404C00E94320C820FAA
:10185000911D219120532A30C0F31EF4909581955B
:101860009F4F08957AE0979F902D879F802D910D2F
:1018700011240895A1E21A2EAA1BBB1BFD010DC065
:10188000AA1FBB1FEE1FFF1FA217B307E407F50730
:1018900020F0A21BB30BE40BF50B661F771F881F0C
:1018A000991F1A9469F760957095809590959B01A2
:1018B000AC01BD01CF0108952F923F924F925F92EC
:1018C0006F927F928F929F92AF92BF92CF92DF9250
:1018D000EF92FF920F931F93CF93DF93CDB7DEB7B5
:1018E000CA1BDB0B0FB6F894DEBF0FBECDBF099449
:1018F0002A88398848885F846E847D848C849B84A0
:10190000AA84B984C884DF80EE80FD800C811B81AD
:10191000AA81B981CE0FD11D0FB6F894DEBF0FBEDC
:10192000CDBFED010895EE0FFF1F0590F491E02D5E
:1019300009940F931F93CF93DF938230910510F496
:1019400082E090E0E0912203F091230330E020E078
:10195000B0E0A0E0309799F42115310509F44AC0B0
:10196000281B390B24303105D8F58A819B816115FC
:10197000710589F1FB0193838283FE0111C04081CF
:1019800051810281138148175907E0F04817590720
:1019900099F4109761F012960C93129713961C937A
:1019A0003296CF01DF91CF911F910F91089500934F
:1019B000220310932303F4CF2115310551F0421770
:1019C000530738F0A901DB019A01BD01DF01F801DD
:1019D000C1CFEF01F9CF9093230380932203CDCFA2
:1019E000FE01E20FF31F8193919322503109398355
:1019F0002883D7CF2091200330912103232B41F45A
:101A000020910201309103013093210320932003A0
:101A100020910001309101012115310541F42DB7CC
:101A20003EB74091040150910501241B350BE09114
:101A30002003F0912103E217F307A0F42E1B3F0BC4
:101A40002817390778F0AC014E5F5F4F2417350730
:101A500048F04E0F5F1F5093210340932003819362
:101A600091939FCFF0E0E0E09CCFCF93DF9300977E
:101A7000E9F0FC01329713821282A0912203B09107
:101A80002303ED0130E020E01097A1F420813181A3
:101A9000820F931F209120033091210328173907CB
:101AA00009F061C0F0932103E0932003DF91CF910F
:101AB0000895EA01CE17DF07E8F54A815B819E01B0
:101AC00041155105B1F7E901FB83EA834991599129
:101AD000C40FD51FEC17FD0761F480819181029638
:101AE000840F951FE90199838883828193819B8369
:101AF0008A83F0E0E0E012968D919C911397009715
:101B0000B9F52D913C911197CD010296820F931F4B
:101B100020912003309121032817390739F6309797
:101B200051F51092230310922203B0932103A09346
:101B30002003BCCFD383C28340815181840F951F82
:101B4000C817D90761F44E5F5F4F88819981480FAC
:101B5000591F518340838A819B81938382832115FE
:101B6000310509F0B0CFF0932303E09322039ECF19
:101B7000FD01DC01C0CF13821282D7CFB0E0A0E01C
:101B8000E4ECFDE00C945E0C8C01009751F4CB0169
:101B90000E94990C8C01C801CDB7DEB7E0E10C942E
:101BA0007A0CFC01E60FF71F9C0122503109E21765
:101BB000F30708F49DC0D901CD91DC911197C617A8
:101BC000D70798F0C530D10530F3CE0104978617BA
:101BD000970708F3C61BD70B2297C193D1936D9338
:101BE0007C93CF010E94350DD6CF5B01AC1ABD0AA4
:101BF0004C018C0E9D1EA0912203B0912303512C09
:101C0000412CF12CE12C109731F58091200390911B
:101C100021038815990509F05CC04616570608F09F
:101C200058C08091000190910101009741F48DB757
:101C30009EB74091040150910501841B950BE81754
:101C4000F90708F055C0F0932103E0932003F90150
:101C500071836083A0CF8D919C91119712966C90A7
:101C6000129713967C901397A815B90559F56C0136
:101C700042E0C40ED11CCA14DB0420F1AC014A19A5
:101C80005B09DA011296159780F0628273825183A4
:101C90004083D9016D937C93E114F10471F0D70175
:101CA0001396FC93EE93129776CF22968C0F9D1F7E
:101CB000F90191838083F301EFCFF0932303E09345
:101CC000220369CF4816590608F42C017D01D3017F
:101CD0009ACFCB010E94990C7C01009749F0AE018C
:101CE000B8010E947B0EC8010E94350D870153CFB9
:101CF00010E000E050CFFB01DC0102C001900D922A
:101D000041505040D8F70895FB01DC018D910190BE
:101D100080190110D9F3990B0895FB01DC010190A2
:0C1D20000D920020E1F70895F894FFCF29
:101D2C00000024038000000000007801D5000501AC
:101D3C00C50136011401280100000000B8058B050F
:101D4C00EC0502018405AF007505564D4450565FF5
:101D5C00317C315F564D4450560A00564D4450521A
:101D6C005F00564D4450455F003A323A007C005FAC
:101D7C00564D445045000D0A004779726F590000CA
:107E0000112484B714BE81FFF0D085E080938100F7
:107E100082E08093C00088E18093C10086E0809377
:107E2000C20080E18093C4008EE0C9D0259A86E02C
:107E300020E33CEF91E0309385002093840096BBD3
:107E4000B09BFECF1D9AA8958150A9F7CC24DD24C4
:107E500088248394B5E0AB2EA1E19A2EF3E0BF2EE7
:107E6000A2D0813461F49FD0082FAFD0023811F036
:107E7000013811F484E001C083E08DD089C08234E0
:107E800011F484E103C0853419F485E0A6D080C0E4
:107E9000853579F488D0E82EFF2485D0082F10E0AE
:107EA000102F00270E291F29000F111F8ED06801E7
:107EB0006FC0863521F484E090D080E0DECF843638
:107EC00009F040C070D06FD0082F6DD080E0C81688
:107ED00080E7D80618F4F601B7BEE895C0E0D1E017
:107EE00062D089930C17E1F7F0E0CF16F0E7DF06D8
:107EF00018F0F601B7BEE89568D007B600FCFDCFD4
:107F0000A601A0E0B1E02C9130E011968C91119780
:107F100090E0982F8827822B932B1296FA010C0160
:107F200087BEE89511244E5F5F4FF1E0A038BF0790
:107F300051F7F601A7BEE89507B600FCFDCF97BE46
:107F4000E89526C08437B1F42ED02DD0F82E2BD052
:107F50003CD0F601EF2C8F010F5F1F4F84911BD097
:107F6000EA94F801C1F70894C11CD11CFA94CF0C13
:107F7000D11C0EC0853739F428D08EE10CD085E9AC
:107F80000AD08FE07ACF813511F488E018D01DD067
:107F900080E101D065CF982F8091C00085FFFCCF94
:107FA0009093C60008958091C00087FFFCCF809118
:107FB000C00084FD01C0A8958091C6000895E0E648
:107FC000F0E098E1908380830895EDDF803219F02E
:107FD00088E0F5DFFFCF84E1DECF1F93182FE3DFCA
:107FE0001150E9F7F2DF1F91089580E0E8DFEE27F6
:047FF000FF270994CA
:027FFE00040479
:0400000300007E007B
:00000001FF